{
  "contractName": "DecentralizedAuction",
  "abi": [
    {
      "inputs": [],
      "stateMutability": "nonpayable",
      "type": "constructor"
    },
    {
      "anonymous": false,
      "inputs": [
        {
          "indexed": false,
          "internalType": "uint256",
          "name": "itemId",
          "type": "uint256"
        },
        {
          "indexed": false,
          "internalType": "string",
          "name": "name",
          "type": "string"
        },
        {
          "indexed": false,
          "internalType": "uint256",
          "name": "minBid",
          "type": "uint256"
        },
        {
          "indexed": false,
          "internalType": "uint256",
          "name": "buyoutPrice",
          "type": "uint256"
        }
      ],
      "name": "AuctionCreated",
      "type": "event"
    },
    {
      "anonymous": false,
      "inputs": [
        {
          "indexed": false,
          "internalType": "uint256",
          "name": "itemId",
          "type": "uint256"
        },
        {
          "indexed": false,
          "internalType": "address",
          "name": "winner",
          "type": "address"
        },
        {
          "indexed": false,
          "internalType": "uint256",
          "name": "amount",
          "type": "uint256"
        }
      ],
      "name": "AuctionEnded",
      "type": "event"
    },
    {
      "anonymous": false,
      "inputs": [
        {
          "indexed": false,
          "internalType": "uint256",
          "name": "itemId",
          "type": "uint256"
        },
        {
          "indexed": false,
          "internalType": "address",
          "name": "bidder",
          "type": "address"
        },
        {
          "indexed": false,
          "internalType": "uint256",
          "name": "amount",
          "type": "uint256"
        }
      ],
      "name": "HighestBidIncreased",
      "type": "event"
    },
    {
      "anonymous": false,
      "inputs": [
        {
          "indexed": false,
          "internalType": "uint256",
          "name": "itemId",
          "type": "uint256"
        },
        {
          "indexed": false,
          "internalType": "address",
          "name": "buyer",
          "type": "address"
        },
        {
          "indexed": false,
          "internalType": "uint256",
          "name": "amount",
          "type": "uint256"
        }
      ],
      "name": "ItemBoughtOut",
      "type": "event"
    },
    {
      "anonymous": false,
      "inputs": [
        {
          "indexed": false,
          "internalType": "address",
          "name": "userAddress",
          "type": "address"
        },
        {
          "indexed": false,
          "internalType": "string",
          "name": "username",
          "type": "string"
        }
      ],
      "name": "UserRegistered",
      "type": "event"
    },
    {
      "inputs": [
        {
          "internalType": "uint256",
          "name": "",
          "type": "uint256"
        }
      ],
      "name": "items",
      "outputs": [
        {
          "internalType": "uint256",
          "name": "id",
          "type": "uint256"
        },
        {
          "internalType": "address payable",
          "name": "seller",
          "type": "address"
        },
        {
          "internalType": "string",
          "name": "name",
          "type": "string"
        },
        {
          "internalType": "string",
          "name": "imageUrl",
          "type": "string"
        },
        {
          "internalType": "uint256",
          "name": "minBid",
          "type": "uint256"
        },
        {
          "internalType": "uint256",
          "name": "buyoutPrice",
          "type": "uint256"
        },
        {
          "internalType": "address",
          "name": "highestBidder",
          "type": "address"
        },
        {
          "internalType": "uint256",
          "name": "highestBid",
          "type": "uint256"
        },
        {
          "internalType": "bool",
          "name": "ended",
          "type": "bool"
        }
      ],
      "stateMutability": "view",
      "type": "function",
      "constant": true
    },
    {
      "inputs": [
        {
          "internalType": "address",
          "name": "",
          "type": "address"
        }
      ],
      "name": "registered",
      "outputs": [
        {
          "internalType": "bool",
          "name": "",
          "type": "bool"
        }
      ],
      "stateMutability": "view",
      "type": "function",
      "constant": true
    },
    {
      "inputs": [
        {
          "internalType": "address",
          "name": "",
          "type": "address"
        }
      ],
      "name": "users",
      "outputs": [
        {
          "internalType": "string",
          "name": "username",
          "type": "string"
        },
        {
          "internalType": "address",
          "name": "walletAddress",
          "type": "address"
        }
      ],
      "stateMutability": "view",
      "type": "function",
      "constant": true
    },
    {
      "inputs": [
        {
          "internalType": "string",
          "name": "_username",
          "type": "string"
        }
      ],
      "name": "registerUser",
      "outputs": [],
      "stateMutability": "nonpayable",
      "type": "function"
    },
    {
      "inputs": [
        {
          "internalType": "address",
          "name": "_userAddress",
          "type": "address"
        }
      ],
      "name": "getUser",
      "outputs": [
        {
          "components": [
            {
              "internalType": "string",
              "name": "username",
              "type": "string"
            },
            {
              "internalType": "address",
              "name": "walletAddress",
              "type": "address"
            }
          ],
          "internalType": "struct DecentralizedAuction.User",
          "name": "",
          "type": "tuple"
        }
      ],
      "stateMutability": "view",
      "type": "function",
      "constant": true
    },
    {
      "inputs": [
        {
          "internalType": "string",
          "name": "name",
          "type": "string"
        },
        {
          "internalType": "string",
          "name": "imageUrl",
          "type": "string"
        },
        {
          "internalType": "uint256",
          "name": "minBid",
          "type": "uint256"
        },
        {
          "internalType": "uint256",
          "name": "buyoutPrice",
          "type": "uint256"
        }
      ],
      "name": "addItem",
      "outputs": [],
      "stateMutability": "nonpayable",
      "type": "function"
    },
    {
      "inputs": [
        {
          "internalType": "uint256",
          "name": "itemId",
          "type": "uint256"
        }
      ],
      "name": "bid",
      "outputs": [],
      "stateMutability": "payable",
      "type": "function",
      "payable": true
    },
    {
      "inputs": [
        {
          "internalType": "uint256",
          "name": "itemId",
          "type": "uint256"
        }
      ],
      "name": "buyout",
      "outputs": [],
      "stateMutability": "payable",
      "type": "function",
      "payable": true
    },
    {
      "inputs": [
        {
          "internalType": "uint256",
          "name": "itemId",
          "type": "uint256"
        }
      ],
      "name": "manualEndAuction",
      "outputs": [],
      "stateMutability": "nonpayable",
      "type": "function"
    },
    {
      "inputs": [],
      "name": "itemsCount",
      "outputs": [
        {
          "internalType": "uint256",
          "name": "",
          "type": "uint256"
        }
      ],
      "stateMutability": "view",
      "type": "function",
      "constant": true
    },
    {
      "inputs": [],
      "name": "getAllUserItems",
      "outputs": [
        {
          "components": [
            {
              "internalType": "uint256",
              "name": "id",
              "type": "uint256"
            },
            {
              "internalType": "address payable",
              "name": "seller",
              "type": "address"
            },
            {
              "internalType": "string",
              "name": "name",
              "type": "string"
            },
            {
              "internalType": "string",
              "name": "imageUrl",
              "type": "string"
            },
            {
              "internalType": "uint256",
              "name": "minBid",
              "type": "uint256"
            },
            {
              "internalType": "uint256",
              "name": "buyoutPrice",
              "type": "uint256"
            },
            {
              "internalType": "address",
              "name": "highestBidder",
              "type": "address"
            },
            {
              "internalType": "uint256",
              "name": "highestBid",
              "type": "uint256"
            },
            {
              "internalType": "bool",
              "name": "ended",
              "type": "bool"
            }
          ],
          "internalType": "struct DecentralizedAuction.Item[]",
          "name": "",
          "type": "tuple[]"
        }
      ],
      "stateMutability": "view",
      "type": "function",
      "constant": true
    }
  ],
  "bytecode": "0x608060405234801561001057600080fd5b50612cd9806100206000396000f3fe60806040526004361061009c5760003560e01c8063a87430ba11610064578063a87430ba1461016a578063ab18d07a146101a8578063b2dd5c07146101d1578063bfb231d21461020e578063dc8cbd2c14610253578063e2c03ace1461027c5761009c565b806307bec66f146100a15780632920e022146100bd578063454a2ab3146100e85780636f77926b14610104578063704f1b9414610141575b600080fd5b6100bb60048036038101906100b69190611a63565b6102a7565b005b3480156100c957600080fd5b506100d26105c1565b6040516100df9190611d3a565b60405180910390f35b61010260048036038101906100fd9190611a63565b610a67565b005b34801561011057600080fd5b5061012b60048036038101906101269190611d88565b610e43565b6040516101389190611df2565b60405180910390f35b34801561014d57600080fd5b5061016860048036038101906101639190611f49565b611010565b005b34801561017657600080fd5b50610191600480360381019061018c9190611d88565b6111fb565b60405161019f929190611feb565b60405180910390f35b3480156101b457600080fd5b506101cf60048036038101906101ca9190611a63565b6112c7565b005b3480156101dd57600080fd5b506101f860048036038101906101f39190611d88565b611424565b604051610205919061202a565b60405180910390f35b34801561021a57600080fd5b5061023560048036038101906102309190611a63565b611444565b60405161024a99989796959493929190612063565b60405180910390f35b34801561025f57600080fd5b5061027a600480360381019061027591906120fe565b6115ff565b005b34801561028857600080fd5b506102916117f9565b60405161029e919061219d565b60405180910390f35b60008054905081106102ee576040517f08c379a00000000000000000000000000000000000000000000000000000000081526004016102e590612204565b60405180910390fd5b600080828154811061030357610302612224565b5b906000526020600020906009020190506000828154811061032757610326612224565b5b906000526020600020906009020160080160009054906101000a900460ff1615610386576040517f08c379a000000000000000000000000000000000000000000000000000000000815260040161037d9061229f565b60405180910390fd5b806005015434146103cc576040517f08c379a00000000000000000000000000000000000000000000000000000000081526004016103c39061230b565b60405180910390fd5b60018160080160006101000a81548160ff021916908315150217905550600073ffffffffffffffffffffffffffffffffffffffff168160060160009054906101000a900473ffffffffffffffffffffffffffffffffffffffff1673ffffffffffffffffffffffffffffffffffffffff16146105175760008160060160009054906101000a900473ffffffffffffffffffffffffffffffffffffffff1673ffffffffffffffffffffffffffffffffffffffff16826007015460405161048f9061235c565b60006040518083038185875af1925050503d80600081146104cc576040519150601f19603f3d011682016040523d82523d6000602084013e6104d1565b606091505b5050905080610515576040517f08c379a000000000000000000000000000000000000000000000000000000000815260040161050c906123e3565b60405180910390fd5b505b8060010160009054906101000a900473ffffffffffffffffffffffffffffffffffffffff1673ffffffffffffffffffffffffffffffffffffffff166108fc349081150290604051600060405180830381858888f19350505050158015610581573d6000803e3d6000fd5b507f713f19a7f9a1e0c7daa8679ac03a7574d05a0fa17776c383c91aafff17c7f3568233346040516105b593929190612403565b60405180910390a15050565b6060600260003373ffffffffffffffffffffffffffffffffffffffff1673ffffffffffffffffffffffffffffffffffffffff16815260200190815260200160002060009054906101000a900460ff1661064f576040517f08c379a000000000000000000000000000000000000000000000000000000000815260040161064690612486565b60405180910390fd5b6000805b6000805490508110156106fa573373ffffffffffffffffffffffffffffffffffffffff166000828154811061068b5761068a612224565b5b906000526020600020906009020160010160009054906101000a900473ffffffffffffffffffffffffffffffffffffffff1673ffffffffffffffffffffffffffffffffffffffff16036106e75781806106e3906124d5565b9250505b80806106f2906124d5565b915050610653565b5060008167ffffffffffffffff81111561071757610716611e1e565b5b60405190808252806020026020018201604052801561075057816020015b61073d61196f565b8152602001906001900390816107355790505b5090506000805b600080549050811015610a5d573373ffffffffffffffffffffffffffffffffffffffff166000828154811061078f5761078e612224565b5b906000526020600020906009020160010160009054906101000a900473ffffffffffffffffffffffffffffffffffffffff1673ffffffffffffffffffffffffffffffffffffffff1603610a4a57600081815481106107f0576107ef612224565b5b906000526020600020906009020160405180610120016040529081600082015481526020016001820160009054906101000a900473ffffffffffffffffffffffffffffffffffffffff1673ffffffffffffffffffffffffffffffffffffffff1673ffffffffffffffffffffffffffffffffffffffff16815260200160028201805461087a9061254c565b80601f01602080910402602001604051908101604052809291908181526020018280546108a69061254c565b80156108f35780601f106108c8576101008083540402835291602001916108f3565b820191906000526020600020905b8154815290600101906020018083116108d657829003601f168201915b5050505050815260200160038201805461090c9061254c565b80601f01602080910402602001604051908101604052809291908181526020018280546109389061254c565b80156109855780601f1061095a57610100808354040283529160200191610985565b820191906000526020600020905b81548152906001019060200180831161096857829003601f168201915b5050505050815260200160048201548152602001600582015481526020016006820160009054906101000a900473ffffffffffffffffffffffffffffffffffffffff1673ffffffffffffffffffffffffffffffffffffffff1673ffffffffffffffffffffffffffffffffffffffff168152602001600782015481526020016008820160009054906101000a900460ff161515151581525050838381518110610a3057610a2f612224565b5b60200260200101819052508180610a46906124d5565b9250505b8080610a55906124d5565b915050610757565b5081935050505090565b6000805490508110610aae576040517f08c379a0000000000000000000000000000000000000000000000000000000008152600401610aa590612204565b60405180910390fd5b6000808281548110610ac357610ac2612224565b5b906000526020600020906009020190508060080160009054906101000a900460ff1615610b25576040517f08c379a0000000000000000000000000000000000000000000000000000000008152600401610b1c906125c9565b60405180910390fd5b3373ffffffffffffffffffffffffffffffffffffffff168160010160009054906101000a900473ffffffffffffffffffffffffffffffffffffffff1673ffffffffffffffffffffffffffffffffffffffff1603610bb7576040517f08c379a0000000000000000000000000000000000000000000000000000000008152600401610bae9061265b565b60405180910390fd5b8060040154341015610bfe576040517f08c379a0000000000000000000000000000000000000000000000000000000008152600401610bf5906126ed565b60405180910390fd5b80600701543411610c44576040517f08c379a0000000000000000000000000000000000000000000000000000000008152600401610c3b90612759565b60405180910390fd5b80600501543410610c8a576040517f08c379a0000000000000000000000000000000000000000000000000000000008152600401610c81906127c5565b60405180910390fd5b600073ffffffffffffffffffffffffffffffffffffffff168160060160009054906101000a900473ffffffffffffffffffffffffffffffffffffffff1673ffffffffffffffffffffffffffffffffffffffff1614610db85760008160060160009054906101000a900473ffffffffffffffffffffffffffffffffffffffff1673ffffffffffffffffffffffffffffffffffffffff168260070154604051610d309061235c565b60006040518083038185875af1925050503d8060008114610d6d576040519150601f19603f3d011682016040523d82523d6000602084013e610d72565b606091505b5050905080610db6576040517f08c379a0000000000000000000000000000000000000000000000000000000008152600401610dad906123e3565b60405180910390fd5b505b338160060160006101000a81548173ffffffffffffffffffffffffffffffffffffffff021916908373ffffffffffffffffffffffffffffffffffffffff1602179055503481600701819055507fda0a18da71d8ebd145966339a728fc0d8ccc07c22870d561890d823c515dda6b823334604051610e3793929190612403565b60405180910390a15050565b610e4b6119e9565b600260008373ffffffffffffffffffffffffffffffffffffffff1673ffffffffffffffffffffffffffffffffffffffff16815260200190815260200160002060009054906101000a900460ff16610ed7576040517f08c379a0000000000000000000000000000000000000000000000000000000008152600401610ece90612486565b60405180910390fd5b600160008373ffffffffffffffffffffffffffffffffffffffff1673ffffffffffffffffffffffffffffffffffffffff168152602001908152602001600020604051806040016040529081600082018054610f319061254c565b80601f0160208091040260200160405190810160405280929190818152602001828054610f5d9061254c565b8015610faa5780601f10610f7f57610100808354040283529160200191610faa565b820191906000526020600020905b815481529060010190602001808311610f8d57829003601f168201915b505050505081526020016001820160009054906101000a900473ffffffffffffffffffffffffffffffffffffffff1673ffffffffffffffffffffffffffffffffffffffff1673ffffffffffffffffffffffffffffffffffffffff16815250509050919050565b600260003373ffffffffffffffffffffffffffffffffffffffff1673ffffffffffffffffffffffffffffffffffffffff16815260200190815260200160002060009054906101000a900460ff161561109d576040517f08c379a000000000000000000000000000000000000000000000000000000000815260040161109490612831565b60405180910390fd5b60405180604001604052808281526020013373ffffffffffffffffffffffffffffffffffffffff16815250600160003373ffffffffffffffffffffffffffffffffffffffff1673ffffffffffffffffffffffffffffffffffffffff168152602001908152602001600020600082015181600001908161111c91906129fd565b5060208201518160010160006101000a81548173ffffffffffffffffffffffffffffffffffffffff021916908373ffffffffffffffffffffffffffffffffffffffff1602179055509050506001600260003373ffffffffffffffffffffffffffffffffffffffff1673ffffffffffffffffffffffffffffffffffffffff16815260200190815260200160002060006101000a81548160ff0219169083151502179055507f48cac28ad4dc618e15f4c2dd5e97751182f166de97b25618318b2112aa951a2f33826040516111f0929190612acf565b60405180910390a150565b600160205280600052604060002060009150905080600001805461121e9061254c565b80601f016020809104026020016040519081016040528092919081815260200182805461124a9061254c565b80156112975780601f1061126c57610100808354040283529160200191611297565b820191906000526020600020905b81548152906001019060200180831161127a57829003601f168201915b5050505050908060010160009054906101000a900473ffffffffffffffffffffffffffffffffffffffff16905082565b600080549050811061130e576040517f08c379a000000000000000000000000000000000000000000000000000000000815260040161130590612204565b60405180910390fd5b600080828154811061132357611322612224565b5b906000526020600020906009020190508060010160009054906101000a900473ffffffffffffffffffffffffffffffffffffffff1673ffffffffffffffffffffffffffffffffffffffff163373ffffffffffffffffffffffffffffffffffffffff16146113c5576040517f08c379a00000000000000000000000000000000000000000000000000000000081526004016113bc90612b71565b60405180910390fd5b8060080160009054906101000a900460ff1615611417576040517f08c379a000000000000000000000000000000000000000000000000000000000815260040161140e906125c9565b60405180910390fd5b61142082611805565b5050565b60026020528060005260406000206000915054906101000a900460ff1681565b6000818154811061145457600080fd5b90600052602060002090600902016000915090508060000154908060010160009054906101000a900473ffffffffffffffffffffffffffffffffffffffff16908060020180546114a39061254c565b80601f01602080910402602001604051908101604052809291908181526020018280546114cf9061254c565b801561151c5780601f106114f15761010080835404028352916020019161151c565b820191906000526020600020905b8154815290600101906020018083116114ff57829003601f168201915b5050505050908060030180546115319061254c565b80601f016020809104026020016040519081016040528092919081815260200182805461155d9061254c565b80156115aa5780601f1061157f576101008083540402835291602001916115aa565b820191906000526020600020905b81548152906001019060200180831161158d57829003601f168201915b5050505050908060040154908060050154908060060160009054906101000a900473ffffffffffffffffffffffffffffffffffffffff16908060070154908060080160009054906101000a900460ff16905089565b600060405180610120016040528060008054905081526020013373ffffffffffffffffffffffffffffffffffffffff168152602001868152602001858152602001848152602001838152602001600073ffffffffffffffffffffffffffffffffffffffff168152602001600081526020016000151581525090806001815401808255809150506001900390600052602060002090600902016000909190919091506000820151816000015560208201518160010160006101000a81548173ffffffffffffffffffffffffffffffffffffffff021916908373ffffffffffffffffffffffffffffffffffffffff160217905550604082015181600201908161170691906129fd565b50606082015181600301908161171c91906129fd565b506080820151816004015560a0820151816005015560c08201518160060160006101000a81548173ffffffffffffffffffffffffffffffffffffffff021916908373ffffffffffffffffffffffffffffffffffffffff16021790555060e082015181600701556101008201518160080160006101000a81548160ff02191690831515021790555050507f5bf34ed94988e5dcdc7d1faaa54eb1d3b55f45d5f11457e235afb21a8ebbe73c60016000805490506117d89190612b91565b8584846040516117eb9493929190612bc5565b60405180910390a150505050565b60008080549050905090565b600080828154811061181a57611819612224565b5b906000526020600020906009020190508060080160009054906101000a900460ff161561187c576040517f08c379a000000000000000000000000000000000000000000000000000000000815260040161187390612c83565b60405180910390fd5b60018160080160006101000a81548160ff0219169083151502179055508060010160009054906101000a900473ffffffffffffffffffffffffffffffffffffffff1673ffffffffffffffffffffffffffffffffffffffff166108fc82600701549081150290604051600060405180830381858888f19350505050158015611907573d6000803e3d6000fd5b507fd2aa34a4fdbbc6dff6a3e56f46e0f3ae2a31d7785ff3487aa5c95c642acea501828260060160009054906101000a900473ffffffffffffffffffffffffffffffffffffffff16836007015460405161196393929190612403565b60405180910390a15050565b60405180610120016040528060008152602001600073ffffffffffffffffffffffffffffffffffffffff16815260200160608152602001606081526020016000815260200160008152602001600073ffffffffffffffffffffffffffffffffffffffff168152602001600081526020016000151581525090565b604051806040016040528060608152602001600073ffffffffffffffffffffffffffffffffffffffff1681525090565b6000604051905090565b600080fd5b600080fd5b6000819050919050565b611a4081611a2d565b8114611a4b57600080fd5b50565b600081359050611a5d81611a37565b92915050565b600060208284031215611a7957611a78611a23565b5b6000611a8784828501611a4e565b91505092915050565b600081519050919050565b600082825260208201905092915050565b6000819050602082019050919050565b611ac581611a2d565b82525050565b600073ffffffffffffffffffffffffffffffffffffffff82169050919050565b6000611af682611acb565b9050919050565b611b0681611aeb565b82525050565b600081519050919050565b600082825260208201905092915050565b60005b83811015611b46578082015181840152602081019050611b2b565b60008484015250505050565b6000601f19601f8301169050919050565b6000611b6e82611b0c565b611b788185611b17565b9350611b88818560208601611b28565b611b9181611b52565b840191505092915050565b6000611ba782611acb565b9050919050565b611bb781611b9c565b82525050565b60008115159050919050565b611bd281611bbd565b82525050565b600061012083016000830151611bf16000860182611abc565b506020830151611c046020860182611afd565b5060408301518482036040860152611c1c8282611b63565b91505060608301518482036060860152611c368282611b63565b9150506080830151611c4b6080860182611abc565b5060a0830151611c5e60a0860182611abc565b5060c0830151611c7160c0860182611bae565b5060e0830151611c8460e0860182611abc565b50610100830151611c99610100860182611bc9565b508091505092915050565b6000611cb08383611bd8565b905092915050565b6000602082019050919050565b6000611cd082611a90565b611cda8185611a9b565b935083602082028501611cec85611aac565b8060005b85811015611d285784840389528151611d098582611ca4565b9450611d1483611cb8565b925060208a01995050600181019050611cf0565b50829750879550505050505092915050565b60006020820190508181036000830152611d548184611cc5565b905092915050565b611d6581611b9c565b8114611d7057600080fd5b50565b600081359050611d8281611d5c565b92915050565b600060208284031215611d9e57611d9d611a23565b5b6000611dac84828501611d73565b91505092915050565b60006040830160008301518482036000860152611dd28282611b63565b9150506020830151611de76020860182611bae565b508091505092915050565b60006020820190508181036000830152611e0c8184611db5565b905092915050565b600080fd5b600080fd5b7f4e487b7100000000000000000000000000000000000000000000000000000000600052604160045260246000fd5b611e5682611b52565b810181811067ffffffffffffffff82111715611e7557611e74611e1e565b5b80604052505050565b6000611e88611a19565b9050611e948282611e4d565b919050565b600067ffffffffffffffff821115611eb457611eb3611e1e565b5b611ebd82611b52565b9050602081019050919050565b82818337600083830152505050565b6000611eec611ee784611e99565b611e7e565b905082815260208101848484011115611f0857611f07611e19565b5b611f13848285611eca565b509392505050565b600082601f830112611f3057611f2f611e14565b5b8135611f40848260208601611ed9565b91505092915050565b600060208284031215611f5f57611f5e611a23565b5b600082013567ffffffffffffffff811115611f7d57611f7c611a28565b5b611f8984828501611f1b565b91505092915050565b600082825260208201905092915050565b6000611fae82611b0c565b611fb88185611f92565b9350611fc8818560208601611b28565b611fd181611b52565b840191505092915050565b611fe581611b9c565b82525050565b600060408201905081810360008301526120058185611fa3565b90506120146020830184611fdc565b9392505050565b61202481611bbd565b82525050565b600060208201905061203f600083018461201b565b92915050565b61204e81611a2d565b82525050565b61205d81611aeb565b82525050565b600061012082019050612079600083018c612045565b612086602083018b612054565b8181036040830152612098818a611fa3565b905081810360608301526120ac8189611fa3565b90506120bb6080830188612045565b6120c860a0830187612045565b6120d560c0830186611fdc565b6120e260e0830185612045565b6120f061010083018461201b565b9a9950505050505050505050565b6000806000806080858703121561211857612117611a23565b5b600085013567ffffffffffffffff81111561213657612135611a28565b5b61214287828801611f1b565b945050602085013567ffffffffffffffff81111561216357612162611a28565b5b61216f87828801611f1b565b935050604061218087828801611a4e565b925050606061219187828801611a4e565b91505092959194509250565b60006020820190506121b26000830184612045565b92915050565b7f496e76616c6964204974656d2049440000000000000000000000000000000000600082015250565b60006121ee600f83611f92565b91506121f9826121b8565b602082019050919050565b6000602082019050818103600083015261221d816121e1565b9050919050565b7f4e487b7100000000000000000000000000000000000000000000000000000000600052603260045260246000fd5b7f41756374696f6e20616c726561647920656e6465642e00000000000000000000600082015250565b6000612289601683611f92565b915061229482612253565b602082019050919050565b600060208201905081810360008301526122b88161227c565b9050919050565b7f4275796f7574207072696365206e6f74206d65742e0000000000000000000000600082015250565b60006122f5601583611f92565b9150612300826122bf565b602082019050919050565b60006020820190508181036000830152612324816122e8565b9050919050565b600081905092915050565b50565b600061234660008361232b565b915061235182612336565b600082019050919050565b600061236782612339565b9150819050919050565b7f526566756e6420746f2070726576696f7573206869676865737420626964646560008201527f72206661696c6564000000000000000000000000000000000000000000000000602082015250565b60006123cd602883611f92565b91506123d882612371565b604082019050919050565b600060208201905081810360008301526123fc816123c0565b9050919050565b60006060820190506124186000830186612045565b6124256020830185611fdc565b6124326040830184612045565b949350505050565b7f55736572206e6f7420726567697374657265642e000000000000000000000000600082015250565b6000612470601483611f92565b915061247b8261243a565b602082019050919050565b6000602082019050818103600083015261249f81612463565b9050919050565b7f4e487b7100000000000000000000000000000000000000000000000000000000600052601160045260246000fd5b60006124e082611a2d565b91507fffffffffffffffffffffffffffffffffffffffffffffffffffffffffffffffff8203612512576125116124a6565b5b600182019050919050565b7f4e487b7100000000000000000000000000000000000000000000000000000000600052602260045260246000fd5b6000600282049050600182168061256457607f821691505b6020821081036125775761257661251d565b5b50919050565b7f41756374696f6e20616c726561647920656e6465640000000000000000000000600082015250565b60006125b3601583611f92565b91506125be8261257d565b602082019050919050565b600060208201905081810360008301526125e2816125a6565b9050919050565b7f596f752063616e6e6f7420626964206f6e20796f7572206f776e20617563746960008201527f6f6e000000000000000000000000000000000000000000000000000000000000602082015250565b6000612645602283611f92565b9150612650826125e9565b604082019050919050565b6000602082019050818103600083015261267481612638565b9050919050565b7f426964206d7573742062652067726561746572207468616e206f72206571756160008201527f6c20746f206d696e696d756d2062696400000000000000000000000000000000602082015250565b60006126d7603083611f92565b91506126e28261267b565b604082019050919050565b60006020820190508181036000830152612706816126ca565b9050919050565b7f546865726520616c726561647920697320612068696768657220626964000000600082015250565b6000612743601d83611f92565b915061274e8261270d565b602082019050919050565b6000602082019050818103600083015261277281612736565b9050919050565b7f4269642063616e6e6f7420626520686967686572207468616e206275796f7574600082015250565b60006127af602083611f92565b91506127ba82612779565b602082019050919050565b600060208201905081810360008301526127de816127a2565b9050919050565b7f5573657220616c726561647920726567697374657265642e0000000000000000600082015250565b600061281b601883611f92565b9150612826826127e5565b602082019050919050565b6000602082019050818103600083015261284a8161280e565b9050919050565b60008190508160005260206000209050919050565b60006020601f8301049050919050565b600082821b905092915050565b6000600883026128b37fffffffffffffffffffffffffffffffffffffffffffffffffffffffffffffffff82612876565b6128bd8683612876565b95508019841693508086168417925050509392505050565b6000819050919050565b60006128fa6128f56128f084611a2d565b6128d5565b611a2d565b9050919050565b6000819050919050565b612914836128df565b61292861292082612901565b848454612883565b825550505050565b600090565b61293d612930565b61294881848461290b565b505050565b5b8181101561296c57612961600082612935565b60018101905061294e565b5050565b601f8211156129b15761298281612851565b61298b84612866565b8101602085101561299a578190505b6129ae6129a685612866565b83018261294d565b50505b505050565b600082821c905092915050565b60006129d4600019846008026129b6565b1980831691505092915050565b60006129ed83836129c3565b9150826002028217905092915050565b612a0682611b0c565b67ffffffffffffffff811115612a1f57612a1e611e1e565b5b612a29825461254c565b612a34828285612970565b600060209050601f831160018114612a675760008415612a55578287015190505b612a5f85826129e1565b865550612ac7565b601f198416612a7586612851565b60005b82811015612a9d57848901518255600182019150602085019450602081019050612a78565b86831015612aba5784890151612ab6601f8916826129c3565b8355505b6001600288020188555050505b505050505050565b6000604082019050612ae46000830185611fdc565b8181036020830152612af68184611fa3565b90509392505050565b7f4f6e6c79207468652073656c6c65722063616e20656e6420746869732061756360008201527f74696f6e00000000000000000000000000000000000000000000000000000000602082015250565b6000612b5b602483611f92565b9150612b6682612aff565b604082019050919050565b60006020820190508181036000830152612b8a81612b4e565b9050919050565b6000612b9c82611a2d565b9150612ba783611a2d565b9250828203905081811115612bbf57612bbe6124a6565b5b92915050565b6000608082019050612bda6000830187612045565b8181036020830152612bec8186611fa3565b9050612bfb6040830185612045565b612c086060830184612045565b95945050505050565b7f41756374696f6e20656e642068617320616c7265616479206265656e2063616c60008201527f6c65640000000000000000000000000000000000000000000000000000000000602082015250565b6000612c6d602383611f92565b9150612c7882612c11565b604082019050919050565b60006020820190508181036000830152612c9c81612c60565b905091905056fea26469706673582212200a5d06ecf9553bd024e2d751e16a1df7e0dca9d5c4e1f6efbc8d76ee9d45cfb064736f6c63430008130033",
  "immutableReferences": {},
  "source": "// SPDX-License-Identifier: MIT\r\npragma solidity ^0.8.0;\r\n\r\ncontract DecentralizedAuction {\r\n    struct Item {\r\n        uint id;\r\n        address payable seller;\r\n        string name;\r\n        string imageUrl;\r\n        uint minBid;\r\n        uint buyoutPrice;\r\n        //uint auctionEndTime;\r\n        address highestBidder;\r\n        uint highestBid;\r\n        bool ended;\r\n    }\r\n\r\n    struct User {\r\n        string username;\r\n        address walletAddress;\r\n    }\r\n\r\n    Item[] public items;\r\n    mapping(address => User) public users;\r\n    mapping(address => bool) public registered;\r\n\r\n    event UserRegistered(address userAddress, string username);\r\n    //event AuctionCreated(uint itemId, string name, uint minBid, uint buyoutPrice, uint auctionEndTime);\r\n    event AuctionCreated(uint itemId, string name, uint minBid, uint buyoutPrice);\r\n    event HighestBidIncreased(uint itemId, address bidder, uint amount);\r\n    event AuctionEnded(uint itemId, address winner, uint amount);\r\n    event ItemBoughtOut(uint itemId, address buyer, uint amount);\r\n    \r\n    constructor() {\r\n        // addItem(\"Vintage Phone\", \"https://m.media-amazon.com/images/I/71tQC-279uL.jpg\", 1 ether, 5 ether, 180 minutes);\r\n        // addItem(\"Record Player\", \"https://ii1.pepperfry.com/media/catalog/product/g/o/494x544/gold-brass-and-wood-embossed-horn-and-gramophone-by-exim-decor-gold-brass-and-wood-embossed-horn-and-fjizt5.jpg\", 2 ether, 7 ether, 180 minutes);\r\n        // addItem(\"Aladdin Movie Prop\", \"https://multiwood.com.pk/cdn/shop/products/Picsart_22-10-23_03-53-33-812_1000x1000.jpg?v=1666479726\", 3 ether, 10 ether, 180 minutes);\r\n        // addItem(\"Sword\", \"https://www.swordsantiqueweapons.com/images/s2331b.jpg\", 3 ether, 10 ether, 1 minutes);\r\n        // addItem(\"Flintlock\", \"https://www.hemswell-antiques.com/uploads/media/news/0001/95/thumb_94739_news_wide.jpeg\", 3 ether, 10 ether, 3 minutes);\r\n        // addItem(\"James Bond's DB5\", \"https://www.007.com/wp-content/uploads/2022/08/LCC-LS.jpg\", 3 ether, 10 ether, 5 minutes);\r\n        // addItem(\"Commodore PET\", \"https://i.redd.it/om995fq8j8ua1.jpg\", 3 ether, 10 ether, 5 minutes);\r\n        // addItem(\"HP Palmtop\", \"https://i.pcmag.com/imagery/lineupitems/06sRck1AimbfOxWwRYvEBqX.fit_lim.size_1050x578.v1569508748.jpg\", 3 ether, 10 ether, 5 minutes);\r\n    }\r\n\r\n    function registerUser(string memory _username) public {\r\n        require(!registered[msg.sender], \"User already registered.\");\r\n        users[msg.sender] = User(_username, msg.sender);\r\n        registered[msg.sender] = true;\r\n        emit UserRegistered(msg.sender, _username);\r\n    }\r\n\r\n    function getUser(address _userAddress) public view returns (User memory) {\r\n        require(registered[_userAddress], \"User not registered.\");\r\n        return users[_userAddress];\r\n    }\r\n\r\n    function addItem(string memory name, string memory imageUrl, uint minBid, uint buyoutPrice /*,  uint biddingTime */) public {\r\n        //uint auctionEndTime = block.timestamp + biddingTime;\r\n        items.push(Item({\r\n            id: items.length,\r\n            seller: payable(msg.sender),\r\n            name: name,\r\n            imageUrl: imageUrl,\r\n            minBid: minBid,\r\n            buyoutPrice: buyoutPrice,\r\n            //auctionEndTime: auctionEndTime,\r\n            highestBidder: address(0),\r\n            highestBid: 0,\r\n            ended: false\r\n        }));\r\n        //emit AuctionCreated(items.length - 1, name, minBid, buyoutPrice, auctionEndTime);\r\n        emit AuctionCreated(items.length - 1, name, minBid, buyoutPrice);\r\n    }\r\n\r\n    function bid(uint itemId) public payable {\r\n        require(itemId < items.length, \"Invalid Item ID\");\r\n        Item storage item = items[itemId];\r\n        require(!item.ended, \"Auction already ended\");\r\n        require(item.seller != msg.sender, \"You cannot bid on your own auction\");\r\n        require(msg.value >= item.minBid, \"Bid must be greater than or equal to minimum bid\");\r\n        require(msg.value > item.highestBid, \"There already is a higher bid\");\r\n        require(msg.value < item.buyoutPrice, \"Bid cannot be higher than buyout\");\r\n\r\n        // Refund the previous highest bidder automatically\r\n        if (item.highestBidder != address(0)) {\r\n            (bool success, ) = item.highestBidder.call{value: item.highestBid}(\"\");\r\n            require(success, \"Refund to previous highest bidder failed\");\r\n        }\r\n\r\n        // Update the highest bidder and highest bid\r\n        item.highestBidder = payable(msg.sender);\r\n        item.highestBid = msg.value;\r\n\r\n        emit HighestBidIncreased(itemId, msg.sender, msg.value);\r\n    }\r\n\r\n\r\n    function buyout(uint itemId) public payable {\r\n        require(itemId < items.length, \"Invalid Item ID\");\r\n        Item storage item = items[itemId];\r\n        require(!items[itemId].ended, \"Auction already ended.\");\r\n        require(msg.value == item.buyoutPrice, \"Buyout price not met.\");\r\n        \r\n        item.ended = true;\r\n\r\n        if (item.highestBidder != address(0)) {\r\n            (bool success, ) = item.highestBidder.call{value: item.highestBid}(\"\");\r\n            require(success, \"Refund to previous highest bidder failed\");\r\n        }\r\n\r\n        item.seller.transfer(msg.value);\r\n        \r\n        emit ItemBoughtOut(itemId, msg.sender, msg.value);\r\n    }\r\n\r\n\r\n    function endAuction(uint itemId) internal {\r\n        Item storage item = items[itemId];\r\n        require(!item.ended, \"Auction end has already been called\");\r\n\r\n        item.ended = true;\r\n\r\n        // Transfer the highest bid amount to the seller\r\n        item.seller.transfer(item.highestBid);\r\n\r\n        emit AuctionEnded(itemId, item.highestBidder, item.highestBid);\r\n    }\r\n\r\n\r\n    // Function to manually end the auction\r\n    function manualEndAuction(uint itemId) public {\r\n        require(itemId < items.length, \"Invalid Item ID\");\r\n        Item storage item = items[itemId];\r\n        require(msg.sender == item.seller, \"Only the seller can end this auction\");\r\n        require(!item.ended, \"Auction already ended\");\r\n\r\n        endAuction(itemId);\r\n    }\r\n\r\n\r\n    function itemsCount() public view returns (uint) {\r\n        return items.length;\r\n    }\r\n\r\n    // Retrieve all user items\r\n    function getAllUserItems() public view returns (Item[] memory) {\r\n        require(registered[msg.sender], \"User not registered.\");\r\n\r\n        // Count the user's items\r\n        uint count = 0;\r\n        for (uint index = 0; index < items.length; index++) {\r\n            if (items[index].seller == msg.sender) {\r\n                count++;\r\n            }\r\n        }\r\n\r\n        // Allocate a memory array for the user's items\r\n        Item[] memory list = new Item[](count);\r\n\r\n        uint counter = 0;\r\n        for (uint index = 0; index < items.length; index++) {\r\n            if (items[index].seller == msg.sender) {\r\n                list[counter] = items[index];\r\n                counter++;\r\n            }\r\n        }\r\n\r\n        return list;\r\n    }\r\n}\r\n",
  "sourcePath": "H:\\programming\\miniproject\\Decentralized-Auction-6\\backend\\contracts\\DecentralizedAuction.sol",
  "compiler": {
    "name": "solc",
    "version": "0.8.19+commit.7dd6d404.Emscripten.clang"
  },
  "schemaVersion": "3.4.16",
  "updatedAt": "2024-06-05T06:57:45.313Z",
  "networkType": "ethereum",
  "devdoc": {
    "kind": "dev",
    "methods": {},
    "version": 1
  },
  "userdoc": {
    "kind": "user",
    "methods": {},
    "version": 1
  }
}