{
  "contractName": "DecentralizedAuction",
  "abi": [
    {
      "anonymous": false,
      "inputs": [
        {
          "indexed": false,
          "internalType": "uint256",
          "name": "itemId",
          "type": "uint256"
        },
        {
          "indexed": false,
          "internalType": "string",
          "name": "name",
          "type": "string"
        },
        {
          "indexed": false,
          "internalType": "uint256",
          "name": "minBid",
          "type": "uint256"
        },
        {
          "indexed": false,
          "internalType": "uint256",
          "name": "buyoutPrice",
          "type": "uint256"
        }
      ],
      "name": "AuctionCreated",
      "type": "event"
    },
    {
      "anonymous": false,
      "inputs": [
        {
          "indexed": false,
          "internalType": "uint256",
          "name": "itemId",
          "type": "uint256"
        },
        {
          "indexed": false,
          "internalType": "address",
          "name": "winner",
          "type": "address"
        },
        {
          "indexed": false,
          "internalType": "uint256",
          "name": "amount",
          "type": "uint256"
        }
      ],
      "name": "AuctionEnded",
      "type": "event"
    },
    {
      "anonymous": false,
      "inputs": [
        {
          "indexed": false,
          "internalType": "uint256",
          "name": "itemId",
          "type": "uint256"
        },
        {
          "indexed": false,
          "internalType": "address",
          "name": "bidder",
          "type": "address"
        },
        {
          "indexed": false,
          "internalType": "uint256",
          "name": "amount",
          "type": "uint256"
        }
      ],
      "name": "HighestBidIncreased",
      "type": "event"
    },
    {
      "anonymous": false,
      "inputs": [
        {
          "indexed": false,
          "internalType": "uint256",
          "name": "itemId",
          "type": "uint256"
        },
        {
          "indexed": false,
          "internalType": "address",
          "name": "buyer",
          "type": "address"
        },
        {
          "indexed": false,
          "internalType": "uint256",
          "name": "amount",
          "type": "uint256"
        }
      ],
      "name": "ItemBoughtOut",
      "type": "event"
    },
    {
      "anonymous": false,
      "inputs": [
        {
          "indexed": false,
          "internalType": "address",
          "name": "userAddress",
          "type": "address"
        },
        {
          "indexed": false,
          "internalType": "string",
          "name": "username",
          "type": "string"
        }
      ],
      "name": "UserRegistered",
      "type": "event"
    },
    {
      "inputs": [
        {
          "internalType": "uint256",
          "name": "",
          "type": "uint256"
        }
      ],
      "name": "items",
      "outputs": [
        {
          "internalType": "uint256",
          "name": "id",
          "type": "uint256"
        },
        {
          "internalType": "address payable",
          "name": "seller",
          "type": "address"
        },
        {
          "internalType": "string",
          "name": "name",
          "type": "string"
        },
        {
          "internalType": "string",
          "name": "imageUrl",
          "type": "string"
        },
        {
          "internalType": "uint256",
          "name": "minBid",
          "type": "uint256"
        },
        {
          "internalType": "uint256",
          "name": "buyoutPrice",
          "type": "uint256"
        },
        {
          "internalType": "address",
          "name": "highestBidder",
          "type": "address"
        },
        {
          "internalType": "uint256",
          "name": "highestBid",
          "type": "uint256"
        },
        {
          "internalType": "bool",
          "name": "ended",
          "type": "bool"
        }
      ],
      "stateMutability": "view",
      "type": "function",
      "constant": true
    },
    {
      "inputs": [
        {
          "internalType": "address",
          "name": "",
          "type": "address"
        }
      ],
      "name": "registered",
      "outputs": [
        {
          "internalType": "bool",
          "name": "",
          "type": "bool"
        }
      ],
      "stateMutability": "view",
      "type": "function",
      "constant": true
    },
    {
      "inputs": [
        {
          "internalType": "address",
          "name": "",
          "type": "address"
        }
      ],
      "name": "users",
      "outputs": [
        {
          "internalType": "string",
          "name": "username",
          "type": "string"
        },
        {
          "internalType": "address",
          "name": "walletAddress",
          "type": "address"
        }
      ],
      "stateMutability": "view",
      "type": "function",
      "constant": true
    },
    {
      "inputs": [
        {
          "internalType": "string",
          "name": "_username",
          "type": "string"
        }
      ],
      "name": "registerUser",
      "outputs": [],
      "stateMutability": "nonpayable",
      "type": "function"
    },
    {
      "inputs": [
        {
          "internalType": "address",
          "name": "_userAddress",
          "type": "address"
        }
      ],
      "name": "getUser",
      "outputs": [
        {
          "components": [
            {
              "internalType": "string",
              "name": "username",
              "type": "string"
            },
            {
              "internalType": "address",
              "name": "walletAddress",
              "type": "address"
            }
          ],
          "internalType": "struct DecentralizedAuction.User",
          "name": "",
          "type": "tuple"
        }
      ],
      "stateMutability": "view",
      "type": "function",
      "constant": true
    },
    {
      "inputs": [
        {
          "internalType": "string",
          "name": "name",
          "type": "string"
        },
        {
          "internalType": "string",
          "name": "imageUrl",
          "type": "string"
        },
        {
          "internalType": "uint256",
          "name": "minBid",
          "type": "uint256"
        },
        {
          "internalType": "uint256",
          "name": "buyoutPrice",
          "type": "uint256"
        }
      ],
      "name": "addItem",
      "outputs": [],
      "stateMutability": "nonpayable",
      "type": "function"
    },
    {
      "inputs": [
        {
          "internalType": "uint256",
          "name": "itemId",
          "type": "uint256"
        }
      ],
      "name": "bid",
      "outputs": [],
      "stateMutability": "payable",
      "type": "function",
      "payable": true
    },
    {
      "inputs": [
        {
          "internalType": "uint256",
          "name": "itemId",
          "type": "uint256"
        }
      ],
      "name": "buyout",
      "outputs": [],
      "stateMutability": "payable",
      "type": "function",
      "payable": true
    },
    {
      "inputs": [
        {
          "internalType": "uint256",
          "name": "itemId",
          "type": "uint256"
        }
      ],
      "name": "manualEndAuction",
      "outputs": [],
      "stateMutability": "nonpayable",
      "type": "function"
    },
    {
      "inputs": [],
      "name": "itemsCount",
      "outputs": [
        {
          "internalType": "uint256",
          "name": "",
          "type": "uint256"
        }
      ],
      "stateMutability": "view",
      "type": "function",
      "constant": true
    },
    {
      "inputs": [],
      "name": "getAllUserItems",
      "outputs": [
        {
          "components": [
            {
              "internalType": "uint256",
              "name": "id",
              "type": "uint256"
            },
            {
              "internalType": "address payable",
              "name": "seller",
              "type": "address"
            },
            {
              "internalType": "string",
              "name": "name",
              "type": "string"
            },
            {
              "internalType": "string",
              "name": "imageUrl",
              "type": "string"
            },
            {
              "internalType": "uint256",
              "name": "minBid",
              "type": "uint256"
            },
            {
              "internalType": "uint256",
              "name": "buyoutPrice",
              "type": "uint256"
            },
            {
              "internalType": "address",
              "name": "highestBidder",
              "type": "address"
            },
            {
              "internalType": "uint256",
              "name": "highestBid",
              "type": "uint256"
            },
            {
              "internalType": "bool",
              "name": "ended",
              "type": "bool"
            }
          ],
          "internalType": "struct DecentralizedAuction.Item[]",
          "name": "",
          "type": "tuple[]"
        }
      ],
      "stateMutability": "view",
      "type": "function",
      "constant": true
    }
  ],
  "bytecode": "0x608060405234801561001057600080fd5b50612d25806100206000396000f3fe60806040526004361061009c5760003560e01c8063a87430ba11610064578063a87430ba1461016a578063ab18d07a146101a8578063b2dd5c07146101d1578063bfb231d21461020e578063dc8cbd2c14610253578063e2c03ace1461027c5761009c565b806307bec66f146100a15780632920e022146100bd578063454a2ab3146100e85780636f77926b14610104578063704f1b9414610141575b600080fd5b6100bb60048036038101906100b69190611aaf565b6102a7565b005b3480156100c957600080fd5b506100d261060d565b6040516100df9190611d86565b60405180910390f35b61010260048036038101906100fd9190611aaf565b610ab3565b005b34801561011057600080fd5b5061012b60048036038101906101269190611dd4565b610e8f565b6040516101389190611e3e565b60405180910390f35b34801561014d57600080fd5b5061016860048036038101906101639190611f95565b61105c565b005b34801561017657600080fd5b50610191600480360381019061018c9190611dd4565b611247565b60405161019f929190612037565b60405180910390f35b3480156101b457600080fd5b506101cf60048036038101906101ca9190611aaf565b611313565b005b3480156101dd57600080fd5b506101f860048036038101906101f39190611dd4565b611470565b6040516102059190612076565b60405180910390f35b34801561021a57600080fd5b5061023560048036038101906102309190611aaf565b611490565b60405161024a999897969594939291906120af565b60405180910390f35b34801561025f57600080fd5b5061027a6004803603810190610275919061214a565b61164b565b005b34801561028857600080fd5b50610291611845565b60405161029e91906121e9565b60405180910390f35b60008054905081106102ee576040517f08c379a00000000000000000000000000000000000000000000000000000000081526004016102e590612250565b60405180910390fd5b600080828154811061030357610302612270565b5b906000526020600020906009020190506000828154811061032757610326612270565b5b906000526020600020906009020160080160009054906101000a900460ff1615610386576040517f08c379a000000000000000000000000000000000000000000000000000000000815260040161037d906122eb565b60405180910390fd5b806005015434146103cc576040517f08c379a00000000000000000000000000000000000000000000000000000000081526004016103c390612357565b60405180910390fd5b60018160080160006101000a81548160ff021916908315150217905550600073ffffffffffffffffffffffffffffffffffffffff168160060160009054906101000a900473ffffffffffffffffffffffffffffffffffffffff1673ffffffffffffffffffffffffffffffffffffffff16146105175760008160060160009054906101000a900473ffffffffffffffffffffffffffffffffffffffff1673ffffffffffffffffffffffffffffffffffffffff16826007015460405161048f906123a8565b60006040518083038185875af1925050503d80600081146104cc576040519150601f19603f3d011682016040523d82523d6000602084013e6104d1565b606091505b5050905080610515576040517f08c379a000000000000000000000000000000000000000000000000000000000815260040161050c9061242f565b60405180910390fd5b505b338160060160006101000a81548173ffffffffffffffffffffffffffffffffffffffff021916908373ffffffffffffffffffffffffffffffffffffffff1602179055503481600701819055508060010160009054906101000a900473ffffffffffffffffffffffffffffffffffffffff1673ffffffffffffffffffffffffffffffffffffffff166108fc349081150290604051600060405180830381858888f193505050501580156105cd573d6000803e3d6000fd5b507f713f19a7f9a1e0c7daa8679ac03a7574d05a0fa17776c383c91aafff17c7f3568233346040516106019392919061244f565b60405180910390a15050565b6060600260003373ffffffffffffffffffffffffffffffffffffffff1673ffffffffffffffffffffffffffffffffffffffff16815260200190815260200160002060009054906101000a900460ff1661069b576040517f08c379a0000000000000000000000000000000000000000000000000000000008152600401610692906124d2565b60405180910390fd5b6000805b600080549050811015610746573373ffffffffffffffffffffffffffffffffffffffff16600082815481106106d7576106d6612270565b5b906000526020600020906009020160010160009054906101000a900473ffffffffffffffffffffffffffffffffffffffff1673ffffffffffffffffffffffffffffffffffffffff160361073357818061072f90612521565b9250505b808061073e90612521565b91505061069f565b5060008167ffffffffffffffff81111561076357610762611e6a565b5b60405190808252806020026020018201604052801561079c57816020015b6107896119bb565b8152602001906001900390816107815790505b5090506000805b600080549050811015610aa9573373ffffffffffffffffffffffffffffffffffffffff16600082815481106107db576107da612270565b5b906000526020600020906009020160010160009054906101000a900473ffffffffffffffffffffffffffffffffffffffff1673ffffffffffffffffffffffffffffffffffffffff1603610a96576000818154811061083c5761083b612270565b5b906000526020600020906009020160405180610120016040529081600082015481526020016001820160009054906101000a900473ffffffffffffffffffffffffffffffffffffffff1673ffffffffffffffffffffffffffffffffffffffff1673ffffffffffffffffffffffffffffffffffffffff1681526020016002820180546108c690612598565b80601f01602080910402602001604051908101604052809291908181526020018280546108f290612598565b801561093f5780601f106109145761010080835404028352916020019161093f565b820191906000526020600020905b81548152906001019060200180831161092257829003601f168201915b5050505050815260200160038201805461095890612598565b80601f016020809104026020016040519081016040528092919081815260200182805461098490612598565b80156109d15780601f106109a6576101008083540402835291602001916109d1565b820191906000526020600020905b8154815290600101906020018083116109b457829003601f168201915b5050505050815260200160048201548152602001600582015481526020016006820160009054906101000a900473ffffffffffffffffffffffffffffffffffffffff1673ffffffffffffffffffffffffffffffffffffffff1673ffffffffffffffffffffffffffffffffffffffff168152602001600782015481526020016008820160009054906101000a900460ff161515151581525050838381518110610a7c57610a7b612270565b5b60200260200101819052508180610a9290612521565b9250505b8080610aa190612521565b9150506107a3565b5081935050505090565b6000805490508110610afa576040517f08c379a0000000000000000000000000000000000000000000000000000000008152600401610af190612250565b60405180910390fd5b6000808281548110610b0f57610b0e612270565b5b906000526020600020906009020190508060080160009054906101000a900460ff1615610b71576040517f08c379a0000000000000000000000000000000000000000000000000000000008152600401610b6890612615565b60405180910390fd5b3373ffffffffffffffffffffffffffffffffffffffff168160010160009054906101000a900473ffffffffffffffffffffffffffffffffffffffff1673ffffffffffffffffffffffffffffffffffffffff1603610c03576040517f08c379a0000000000000000000000000000000000000000000000000000000008152600401610bfa906126a7565b60405180910390fd5b8060040154341015610c4a576040517f08c379a0000000000000000000000000000000000000000000000000000000008152600401610c4190612739565b60405180910390fd5b80600701543411610c90576040517f08c379a0000000000000000000000000000000000000000000000000000000008152600401610c87906127a5565b60405180910390fd5b80600501543410610cd6576040517f08c379a0000000000000000000000000000000000000000000000000000000008152600401610ccd90612811565b60405180910390fd5b600073ffffffffffffffffffffffffffffffffffffffff168160060160009054906101000a900473ffffffffffffffffffffffffffffffffffffffff1673ffffffffffffffffffffffffffffffffffffffff1614610e045760008160060160009054906101000a900473ffffffffffffffffffffffffffffffffffffffff1673ffffffffffffffffffffffffffffffffffffffff168260070154604051610d7c906123a8565b60006040518083038185875af1925050503d8060008114610db9576040519150601f19603f3d011682016040523d82523d6000602084013e610dbe565b606091505b5050905080610e02576040517f08c379a0000000000000000000000000000000000000000000000000000000008152600401610df99061242f565b60405180910390fd5b505b338160060160006101000a81548173ffffffffffffffffffffffffffffffffffffffff021916908373ffffffffffffffffffffffffffffffffffffffff1602179055503481600701819055507fda0a18da71d8ebd145966339a728fc0d8ccc07c22870d561890d823c515dda6b823334604051610e839392919061244f565b60405180910390a15050565b610e97611a35565b600260008373ffffffffffffffffffffffffffffffffffffffff1673ffffffffffffffffffffffffffffffffffffffff16815260200190815260200160002060009054906101000a900460ff16610f23576040517f08c379a0000000000000000000000000000000000000000000000000000000008152600401610f1a906124d2565b60405180910390fd5b600160008373ffffffffffffffffffffffffffffffffffffffff1673ffffffffffffffffffffffffffffffffffffffff168152602001908152602001600020604051806040016040529081600082018054610f7d90612598565b80601f0160208091040260200160405190810160405280929190818152602001828054610fa990612598565b8015610ff65780601f10610fcb57610100808354040283529160200191610ff6565b820191906000526020600020905b815481529060010190602001808311610fd957829003601f168201915b505050505081526020016001820160009054906101000a900473ffffffffffffffffffffffffffffffffffffffff1673ffffffffffffffffffffffffffffffffffffffff1673ffffffffffffffffffffffffffffffffffffffff16815250509050919050565b600260003373ffffffffffffffffffffffffffffffffffffffff1673ffffffffffffffffffffffffffffffffffffffff16815260200190815260200160002060009054906101000a900460ff16156110e9576040517f08c379a00000000000000000000000000000000000000000000000000000000081526004016110e09061287d565b60405180910390fd5b60405180604001604052808281526020013373ffffffffffffffffffffffffffffffffffffffff16815250600160003373ffffffffffffffffffffffffffffffffffffffff1673ffffffffffffffffffffffffffffffffffffffff16815260200190815260200160002060008201518160000190816111689190612a49565b5060208201518160010160006101000a81548173ffffffffffffffffffffffffffffffffffffffff021916908373ffffffffffffffffffffffffffffffffffffffff1602179055509050506001600260003373ffffffffffffffffffffffffffffffffffffffff1673ffffffffffffffffffffffffffffffffffffffff16815260200190815260200160002060006101000a81548160ff0219169083151502179055507f48cac28ad4dc618e15f4c2dd5e97751182f166de97b25618318b2112aa951a2f338260405161123c929190612b1b565b60405180910390a150565b600160205280600052604060002060009150905080600001805461126a90612598565b80601f016020809104026020016040519081016040528092919081815260200182805461129690612598565b80156112e35780601f106112b8576101008083540402835291602001916112e3565b820191906000526020600020905b8154815290600101906020018083116112c657829003601f168201915b5050505050908060010160009054906101000a900473ffffffffffffffffffffffffffffffffffffffff16905082565b600080549050811061135a576040517f08c379a000000000000000000000000000000000000000000000000000000000815260040161135190612250565b60405180910390fd5b600080828154811061136f5761136e612270565b5b906000526020600020906009020190508060010160009054906101000a900473ffffffffffffffffffffffffffffffffffffffff1673ffffffffffffffffffffffffffffffffffffffff163373ffffffffffffffffffffffffffffffffffffffff1614611411576040517f08c379a000000000000000000000000000000000000000000000000000000000815260040161140890612bbd565b60405180910390fd5b8060080160009054906101000a900460ff1615611463576040517f08c379a000000000000000000000000000000000000000000000000000000000815260040161145a90612615565b60405180910390fd5b61146c82611851565b5050565b60026020528060005260406000206000915054906101000a900460ff1681565b600081815481106114a057600080fd5b90600052602060002090600902016000915090508060000154908060010160009054906101000a900473ffffffffffffffffffffffffffffffffffffffff16908060020180546114ef90612598565b80601f016020809104026020016040519081016040528092919081815260200182805461151b90612598565b80156115685780601f1061153d57610100808354040283529160200191611568565b820191906000526020600020905b81548152906001019060200180831161154b57829003601f168201915b50505050509080600301805461157d90612598565b80601f01602080910402602001604051908101604052809291908181526020018280546115a990612598565b80156115f65780601f106115cb576101008083540402835291602001916115f6565b820191906000526020600020905b8154815290600101906020018083116115d957829003601f168201915b5050505050908060040154908060050154908060060160009054906101000a900473ffffffffffffffffffffffffffffffffffffffff16908060070154908060080160009054906101000a900460ff16905089565b600060405180610120016040528060008054905081526020013373ffffffffffffffffffffffffffffffffffffffff168152602001868152602001858152602001848152602001838152602001600073ffffffffffffffffffffffffffffffffffffffff168152602001600081526020016000151581525090806001815401808255809150506001900390600052602060002090600902016000909190919091506000820151816000015560208201518160010160006101000a81548173ffffffffffffffffffffffffffffffffffffffff021916908373ffffffffffffffffffffffffffffffffffffffff16021790555060408201518160020190816117529190612a49565b5060608201518160030190816117689190612a49565b506080820151816004015560a0820151816005015560c08201518160060160006101000a81548173ffffffffffffffffffffffffffffffffffffffff021916908373ffffffffffffffffffffffffffffffffffffffff16021790555060e082015181600701556101008201518160080160006101000a81548160ff02191690831515021790555050507f5bf34ed94988e5dcdc7d1faaa54eb1d3b55f45d5f11457e235afb21a8ebbe73c60016000805490506118249190612bdd565b8584846040516118379493929190612c11565b60405180910390a150505050565b60008080549050905090565b600080828154811061186657611865612270565b5b906000526020600020906009020190508060080160009054906101000a900460ff16156118c8576040517f08c379a00000000000000000000000000000000000000000000000000000000081526004016118bf90612ccf565b60405180910390fd5b60018160080160006101000a81548160ff0219169083151502179055508060010160009054906101000a900473ffffffffffffffffffffffffffffffffffffffff1673ffffffffffffffffffffffffffffffffffffffff166108fc82600701549081150290604051600060405180830381858888f19350505050158015611953573d6000803e3d6000fd5b507fd2aa34a4fdbbc6dff6a3e56f46e0f3ae2a31d7785ff3487aa5c95c642acea501828260060160009054906101000a900473ffffffffffffffffffffffffffffffffffffffff1683600701546040516119af9392919061244f565b60405180910390a15050565b60405180610120016040528060008152602001600073ffffffffffffffffffffffffffffffffffffffff16815260200160608152602001606081526020016000815260200160008152602001600073ffffffffffffffffffffffffffffffffffffffff168152602001600081526020016000151581525090565b604051806040016040528060608152602001600073ffffffffffffffffffffffffffffffffffffffff1681525090565b6000604051905090565b600080fd5b600080fd5b6000819050919050565b611a8c81611a79565b8114611a9757600080fd5b50565b600081359050611aa981611a83565b92915050565b600060208284031215611ac557611ac4611a6f565b5b6000611ad384828501611a9a565b91505092915050565b600081519050919050565b600082825260208201905092915050565b6000819050602082019050919050565b611b1181611a79565b82525050565b600073ffffffffffffffffffffffffffffffffffffffff82169050919050565b6000611b4282611b17565b9050919050565b611b5281611b37565b82525050565b600081519050919050565b600082825260208201905092915050565b60005b83811015611b92578082015181840152602081019050611b77565b60008484015250505050565b6000601f19601f8301169050919050565b6000611bba82611b58565b611bc48185611b63565b9350611bd4818560208601611b74565b611bdd81611b9e565b840191505092915050565b6000611bf382611b17565b9050919050565b611c0381611be8565b82525050565b60008115159050919050565b611c1e81611c09565b82525050565b600061012083016000830151611c3d6000860182611b08565b506020830151611c506020860182611b49565b5060408301518482036040860152611c688282611baf565b91505060608301518482036060860152611c828282611baf565b9150506080830151611c976080860182611b08565b5060a0830151611caa60a0860182611b08565b5060c0830151611cbd60c0860182611bfa565b5060e0830151611cd060e0860182611b08565b50610100830151611ce5610100860182611c15565b508091505092915050565b6000611cfc8383611c24565b905092915050565b6000602082019050919050565b6000611d1c82611adc565b611d268185611ae7565b935083602082028501611d3885611af8565b8060005b85811015611d745784840389528151611d558582611cf0565b9450611d6083611d04565b925060208a01995050600181019050611d3c565b50829750879550505050505092915050565b60006020820190508181036000830152611da08184611d11565b905092915050565b611db181611be8565b8114611dbc57600080fd5b50565b600081359050611dce81611da8565b92915050565b600060208284031215611dea57611de9611a6f565b5b6000611df884828501611dbf565b91505092915050565b60006040830160008301518482036000860152611e1e8282611baf565b9150506020830151611e336020860182611bfa565b508091505092915050565b60006020820190508181036000830152611e588184611e01565b905092915050565b600080fd5b600080fd5b7f4e487b7100000000000000000000000000000000000000000000000000000000600052604160045260246000fd5b611ea282611b9e565b810181811067ffffffffffffffff82111715611ec157611ec0611e6a565b5b80604052505050565b6000611ed4611a65565b9050611ee08282611e99565b919050565b600067ffffffffffffffff821115611f0057611eff611e6a565b5b611f0982611b9e565b9050602081019050919050565b82818337600083830152505050565b6000611f38611f3384611ee5565b611eca565b905082815260208101848484011115611f5457611f53611e65565b5b611f5f848285611f16565b509392505050565b600082601f830112611f7c57611f7b611e60565b5b8135611f8c848260208601611f25565b91505092915050565b600060208284031215611fab57611faa611a6f565b5b600082013567ffffffffffffffff811115611fc957611fc8611a74565b5b611fd584828501611f67565b91505092915050565b600082825260208201905092915050565b6000611ffa82611b58565b6120048185611fde565b9350612014818560208601611b74565b61201d81611b9e565b840191505092915050565b61203181611be8565b82525050565b600060408201905081810360008301526120518185611fef565b90506120606020830184612028565b9392505050565b61207081611c09565b82525050565b600060208201905061208b6000830184612067565b92915050565b61209a81611a79565b82525050565b6120a981611b37565b82525050565b6000610120820190506120c5600083018c612091565b6120d2602083018b6120a0565b81810360408301526120e4818a611fef565b905081810360608301526120f88189611fef565b90506121076080830188612091565b61211460a0830187612091565b61212160c0830186612028565b61212e60e0830185612091565b61213c610100830184612067565b9a9950505050505050505050565b6000806000806080858703121561216457612163611a6f565b5b600085013567ffffffffffffffff81111561218257612181611a74565b5b61218e87828801611f67565b945050602085013567ffffffffffffffff8111156121af576121ae611a74565b5b6121bb87828801611f67565b93505060406121cc87828801611a9a565b92505060606121dd87828801611a9a565b91505092959194509250565b60006020820190506121fe6000830184612091565b92915050565b7f496e76616c6964204974656d2049440000000000000000000000000000000000600082015250565b600061223a600f83611fde565b915061224582612204565b602082019050919050565b600060208201905081810360008301526122698161222d565b9050919050565b7f4e487b7100000000000000000000000000000000000000000000000000000000600052603260045260246000fd5b7f41756374696f6e20616c726561647920656e6465642e00000000000000000000600082015250565b60006122d5601683611fde565b91506122e08261229f565b602082019050919050565b60006020820190508181036000830152612304816122c8565b9050919050565b7f4275796f7574207072696365206e6f74206d65742e0000000000000000000000600082015250565b6000612341601583611fde565b915061234c8261230b565b602082019050919050565b6000602082019050818103600083015261237081612334565b9050919050565b600081905092915050565b50565b6000612392600083612377565b915061239d82612382565b600082019050919050565b60006123b382612385565b9150819050919050565b7f526566756e6420746f2070726576696f7573206869676865737420626964646560008201527f72206661696c6564000000000000000000000000000000000000000000000000602082015250565b6000612419602883611fde565b9150612424826123bd565b604082019050919050565b600060208201905081810360008301526124488161240c565b9050919050565b60006060820190506124646000830186612091565b6124716020830185612028565b61247e6040830184612091565b949350505050565b7f55736572206e6f7420726567697374657265642e000000000000000000000000600082015250565b60006124bc601483611fde565b91506124c782612486565b602082019050919050565b600060208201905081810360008301526124eb816124af565b9050919050565b7f4e487b7100000000000000000000000000000000000000000000000000000000600052601160045260246000fd5b600061252c82611a79565b91507fffffffffffffffffffffffffffffffffffffffffffffffffffffffffffffffff820361255e5761255d6124f2565b5b600182019050919050565b7f4e487b7100000000000000000000000000000000000000000000000000000000600052602260045260246000fd5b600060028204905060018216806125b057607f821691505b6020821081036125c3576125c2612569565b5b50919050565b7f41756374696f6e20616c726561647920656e6465640000000000000000000000600082015250565b60006125ff601583611fde565b915061260a826125c9565b602082019050919050565b6000602082019050818103600083015261262e816125f2565b9050919050565b7f596f752063616e6e6f7420626964206f6e20796f7572206f776e20617563746960008201527f6f6e000000000000000000000000000000000000000000000000000000000000602082015250565b6000612691602283611fde565b915061269c82612635565b604082019050919050565b600060208201905081810360008301526126c081612684565b9050919050565b7f426964206d7573742062652067726561746572207468616e206f72206571756160008201527f6c20746f206d696e696d756d2062696400000000000000000000000000000000602082015250565b6000612723603083611fde565b915061272e826126c7565b604082019050919050565b6000602082019050818103600083015261275281612716565b9050919050565b7f546865726520616c726561647920697320612068696768657220626964000000600082015250565b600061278f601d83611fde565b915061279a82612759565b602082019050919050565b600060208201905081810360008301526127be81612782565b9050919050565b7f4269642063616e6e6f7420626520686967686572207468616e206275796f7574600082015250565b60006127fb602083611fde565b9150612806826127c5565b602082019050919050565b6000602082019050818103600083015261282a816127ee565b9050919050565b7f5573657220616c726561647920726567697374657265642e0000000000000000600082015250565b6000612867601883611fde565b915061287282612831565b602082019050919050565b600060208201905081810360008301526128968161285a565b9050919050565b60008190508160005260206000209050919050565b60006020601f8301049050919050565b600082821b905092915050565b6000600883026128ff7fffffffffffffffffffffffffffffffffffffffffffffffffffffffffffffffff826128c2565b61290986836128c2565b95508019841693508086168417925050509392505050565b6000819050919050565b600061294661294161293c84611a79565b612921565b611a79565b9050919050565b6000819050919050565b6129608361292b565b61297461296c8261294d565b8484546128cf565b825550505050565b600090565b61298961297c565b612994818484612957565b505050565b5b818110156129b8576129ad600082612981565b60018101905061299a565b5050565b601f8211156129fd576129ce8161289d565b6129d7846128b2565b810160208510156129e6578190505b6129fa6129f2856128b2565b830182612999565b50505b505050565b600082821c905092915050565b6000612a2060001984600802612a02565b1980831691505092915050565b6000612a398383612a0f565b9150826002028217905092915050565b612a5282611b58565b67ffffffffffffffff811115612a6b57612a6a611e6a565b5b612a758254612598565b612a808282856129bc565b600060209050601f831160018114612ab35760008415612aa1578287015190505b612aab8582612a2d565b865550612b13565b601f198416612ac18661289d565b60005b82811015612ae957848901518255600182019150602085019450602081019050612ac4565b86831015612b065784890151612b02601f891682612a0f565b8355505b6001600288020188555050505b505050505050565b6000604082019050612b306000830185612028565b8181036020830152612b428184611fef565b90509392505050565b7f4f6e6c79207468652073656c6c65722063616e20656e6420746869732061756360008201527f74696f6e00000000000000000000000000000000000000000000000000000000602082015250565b6000612ba7602483611fde565b9150612bb282612b4b565b604082019050919050565b60006020820190508181036000830152612bd681612b9a565b9050919050565b6000612be882611a79565b9150612bf383611a79565b9250828203905081811115612c0b57612c0a6124f2565b5b92915050565b6000608082019050612c266000830187612091565b8181036020830152612c388186611fef565b9050612c476040830185612091565b612c546060830184612091565b95945050505050565b7f41756374696f6e20656e642068617320616c7265616479206265656e2063616c60008201527f6c65640000000000000000000000000000000000000000000000000000000000602082015250565b6000612cb9602383611fde565b9150612cc482612c5d565b604082019050919050565b60006020820190508181036000830152612ce881612cac565b905091905056fea2646970667358221220ebdb6cb028fd76f6ced71bc2bab6bcb5c998f1ad10c714969a02f2b005e4af5d64736f6c63430008130033",
  "immutableReferences": {},
  "source": "// SPDX-License-Identifier: MIT\r\npragma solidity ^0.8.0;\r\n\r\ncontract DecentralizedAuction {\r\n    struct Item {\r\n        uint id;\r\n        address payable seller;\r\n        string name;\r\n        string imageUrl;\r\n        uint minBid;\r\n        uint buyoutPrice;\r\n      \r\n        address highestBidder;\r\n        uint highestBid;\r\n        bool ended;\r\n    }\r\n\r\n    struct User {\r\n        string username;\r\n        address walletAddress;\r\n    }\r\n\r\n    Item[] public items;\r\n    mapping(address => User) public users;\r\n    mapping(address => bool) public registered;\r\n\r\n    event UserRegistered(address userAddress, string username);\r\n \r\n    event AuctionCreated(uint itemId, string name, uint minBid, uint buyoutPrice);\r\n    event HighestBidIncreased(uint itemId, address bidder, uint amount);\r\n    event AuctionEnded(uint itemId, address winner, uint amount);\r\n    event ItemBoughtOut(uint itemId, address buyer, uint amount);\r\n    \r\n\r\n\r\n    function registerUser(string memory _username) public {\r\n        require(!registered[msg.sender], \"User already registered.\");\r\n        users[msg.sender] = User(_username, msg.sender);\r\n        registered[msg.sender] = true;\r\n        emit UserRegistered(msg.sender, _username);\r\n    }\r\n\r\n    function getUser(address _userAddress) public view returns (User memory) {\r\n        require(registered[_userAddress], \"User not registered.\");\r\n        return users[_userAddress];\r\n    }\r\n\r\n    function addItem(string memory name, string memory imageUrl, uint minBid, uint buyoutPrice /*,  uint biddingTime */) public {\r\n        //uint auctionEndTime = block.timestamp + biddingTime;\r\n        items.push(Item({\r\n            id: items.length,\r\n            seller: payable(msg.sender),\r\n            name: name,\r\n            imageUrl: imageUrl,\r\n            minBid: minBid,\r\n            buyoutPrice: buyoutPrice,\r\n            //auctionEndTime: auctionEndTime,\r\n            highestBidder: address(0),\r\n            highestBid: 0,\r\n            ended: false\r\n        }));\r\n        //emit AuctionCreated(items.length - 1, name, minBid, buyoutPrice, auctionEndTime);\r\n        emit AuctionCreated(items.length - 1, name, minBid, buyoutPrice);\r\n    }\r\n\r\n    function bid(uint itemId) public payable {\r\n        require(itemId < items.length, \"Invalid Item ID\");\r\n        Item storage item = items[itemId];\r\n        require(!item.ended, \"Auction already ended\");\r\n        require(item.seller != msg.sender, \"You cannot bid on your own auction\");\r\n        require(msg.value >= item.minBid, \"Bid must be greater than or equal to minimum bid\");\r\n        require(msg.value > item.highestBid, \"There already is a higher bid\");\r\n        require(msg.value < item.buyoutPrice, \"Bid cannot be higher than buyout\");\r\n\r\n        // Refund the previous highest bidder automatically\r\n        if (item.highestBidder != address(0)) {\r\n            (bool success, ) = item.highestBidder.call{value: item.highestBid}(\"\");\r\n            require(success, \"Refund to previous highest bidder failed\");\r\n        }\r\n\r\n        // Update the highest bidder and highest bid\r\n        item.highestBidder = payable(msg.sender);\r\n        item.highestBid = msg.value;\r\n\r\n        emit HighestBidIncreased(itemId, msg.sender, msg.value);\r\n    }\r\n\r\n\r\n    function buyout(uint itemId) public payable {\r\n        require(itemId < items.length, \"Invalid Item ID\");\r\n        Item storage item = items[itemId];\r\n        require(!items[itemId].ended, \"Auction already ended.\");\r\n        require(msg.value == item.buyoutPrice, \"Buyout price not met.\");\r\n        \r\n        item.ended = true;\r\n\r\n        if (item.highestBidder != address(0)) {\r\n            (bool success, ) = item.highestBidder.call{value: item.highestBid}(\"\");\r\n            require(success, \"Refund to previous highest bidder failed\");\r\n        }\r\n\r\n        item.highestBidder = msg.sender;\r\n        item.highestBid = msg.value;\r\n        item.seller.transfer(msg.value);\r\n        \r\n        emit ItemBoughtOut(itemId, msg.sender, msg.value);\r\n    }\r\n\r\n\r\n    function endAuction(uint itemId) internal {\r\n        Item storage item = items[itemId];\r\n        require(!item.ended, \"Auction end has already been called\");\r\n\r\n        item.ended = true;\r\n\r\n        // Transfer the highest bid amount to the seller\r\n        item.seller.transfer(item.highestBid);\r\n\r\n        emit AuctionEnded(itemId, item.highestBidder, item.highestBid);\r\n    }\r\n\r\n\r\n    // Function to manually end the auction\r\n    function manualEndAuction(uint itemId) public {\r\n        require(itemId < items.length, \"Invalid Item ID\");\r\n        Item storage item = items[itemId];\r\n        require(msg.sender == item.seller, \"Only the seller can end this auction\");\r\n        require(!item.ended, \"Auction already ended\");\r\n\r\n        endAuction(itemId);\r\n    }\r\n\r\n\r\n    function itemsCount() public view returns (uint) {\r\n        return items.length;\r\n    }\r\n\r\n    // Retrieve all user items\r\n    function getAllUserItems() public view returns (Item[] memory) {\r\n        require(registered[msg.sender], \"User not registered.\");\r\n\r\n        // Count the user's items\r\n        uint count = 0;\r\n        for (uint index = 0; index < items.length; index++) {\r\n            if (items[index].seller == msg.sender) {\r\n                count++;\r\n            }\r\n        }\r\n\r\n        // Allocate a memory array for the user's items\r\n        Item[] memory list = new Item[](count);\r\n\r\n        uint counter = 0;\r\n        for (uint index = 0; index < items.length; index++) {\r\n            if (items[index].seller == msg.sender) {\r\n                list[counter] = items[index];\r\n                counter++;\r\n            }\r\n        }\r\n\r\n        return list;\r\n    }\r\n    \r\n\r\n}\r\n",
  "sourcePath": "H:\\Auction Dapp\\backend\\contracts\\DecentralizedAuction.sol",
  "compiler": {
    "name": "solc",
    "version": "0.8.19+commit.7dd6d404.Emscripten.clang"
  },
  "schemaVersion": "3.4.16",
  "updatedAt": "2025-01-08T04:35:44.229Z",
  "networkType": "ethereum",
  "devdoc": {
    "kind": "dev",
    "methods": {},
    "version": 1
  },
  "userdoc": {
    "kind": "user",
    "methods": {},
    "version": 1
  }
}